{
  "contractName": "UploadCrop",
  "abi": [
    {
      "constant": false,
      "inputs": [
        {
          "internalType": "string",
          "name": "_cropId",
          "type": "string"
        },
        {
          "internalType": "string",
          "name": "_crophash",
          "type": "string"
        }
      ],
      "name": "uploadInfo",
      "outputs": [],
      "payable": false,
      "stateMutability": "nonpayable",
      "type": "function"
    },
    {
      "constant": true,
      "inputs": [
        {
          "internalType": "string",
          "name": "_cropId",
          "type": "string"
        }
      ],
      "name": "getHash",
      "outputs": [
        {
          "internalType": "string",
          "name": "",
          "type": "string"
        }
      ],
      "payable": false,
      "stateMutability": "view",
      "type": "function"
    }
  ],
  "bytecode": "0x608060405234801561001057600080fd5b50610528806100206000396000f3fe608060405234801561001057600080fd5b50600436106100365760003560e01c80631a88c6231461003b5780635b6beeb91461018d575b600080fd5b61018b6004803603604081101561005157600080fd5b810190808035906020019064010000000081111561006e57600080fd5b82018360208201111561008057600080fd5b803590602001918460018302840111640100000000831117156100a257600080fd5b91908080601f016020809104026020016040519081016040528093929190818152602001838380828437600081840152601f19601f8201169050808301925050505050505091929192908035906020019064010000000081111561010557600080fd5b82018360208201111561011757600080fd5b8035906020019184600183028401116401000000008311171561013957600080fd5b91908080601f016020809104026020016040519081016040528093929190818152602001838380828437600081840152601f19601f8201169050808301925050505050505091929192905050506102c1565b005b610246600480360360208110156101a357600080fd5b81019080803590602001906401000000008111156101c057600080fd5b8201836020820111156101d257600080fd5b803590602001918460018302840111640100000000831117156101f457600080fd5b91908080601f016020809104026020016040519081016040528093929190818152602001838380828437600081840152601f19601f820116905080830192505050505050509192919290505050610343565b6040518080602001828103825283818151815260200191508051906020019080838360005b8381101561028657808201518184015260208101905061026b565b50505050905090810190601f1680156102b35780820380516001836020036101000a031916815260200191505b509250505060405180910390f35b806000836040518082805190602001908083835b602083106102f857805182526020820191506020810190506020830392506102d5565b6001836020036101000a0380198251168184511680821785525050505050509050019150509081526020016040518091039020908051906020019061033e92919061044e565b505050565b60606000826040518082805190602001908083835b6020831061037b5780518252602082019150602081019050602083039250610358565b6001836020036101000a03801982511681845116808217855250505050505090500191505090815260200160405180910390208054600181600116156101000203166002900480601f0160208091040260200160405190810160405280929190818152602001828054600181600116156101000203166002900480156104425780601f1061041757610100808354040283529160200191610442565b820191906000526020600020905b81548152906001019060200180831161042557829003601f168201915b50505050509050919050565b828054600181600116156101000203166002900490600052602060002090601f016020900481019282601f1061048f57805160ff19168380011785556104bd565b828001600101855582156104bd579182015b828111156104bc5782518255916020019190600101906104a1565b5b5090506104ca91906104ce565b5090565b6104f091905b808211156104ec5760008160009055506001016104d4565b5090565b9056fea265627a7a723158200971c694c314b12c1f0ffca1cde60201231253c2417ee12943b77617a85c879564736f6c63430005100032",
  "source": "pragma solidity >=0.5.0 <0.8.0;\n\ncontract UploadCrop{\n  mapping(string => string) Crop;\n\n  function uploadInfo(string memory _cropId, string memory _crophash) public {\n    Crop[_cropId]=_crophash;\n  }\n\n  function getHash(string memory _cropId)view public returns(string memory){\n      return Crop[_cropId];\n  }\n}",
  "sourcePath": "/home/yan/FTChain/testChain/contracts/UploadCrop.sol",
  "compiler": {
    "name": "solc",
    "version": "0.5.16+commit.9c3226ce.Emscripten.clang"
  },
  "schemaVersion": "3.4.6",
  "updatedAt": "2022-04-23T14:41:26.678Z",
  "networkType": "ethereum",
  "devdoc": {
    "methods": {}
  },
  "userdoc": {
    "methods": {}
  }
}